{
  "_format": "hh-sol-artifact-1",
  "contractName": "MDoubleGame",
  "sourceName": "contracts/Maybedoubler.sol",
  "abi": [
    {
      "inputs": [
        {
          "internalType": "address",
          "name": "vrfCoordinator",
          "type": "address"
        },
        {
          "internalType": "uint64",
          "name": "subscriptionId",
          "type": "uint64"
        },
        {
          "internalType": "bytes32",
          "name": "_keyHash",
          "type": "bytes32"
        },
        {
          "internalType": "uint32",
          "name": "_callbackGasLimit",
          "type": "uint32"
        },
        {
          "internalType": "uint16",
          "name": "_requestConfirmations",
          "type": "uint16"
        }
      ],
      "stateMutability": "nonpayable",
      "type": "constructor"
    },
    {
      "inputs": [
        {
          "internalType": "address",
          "name": "have",
          "type": "address"
        },
        {
          "internalType": "address",
          "name": "want",
          "type": "address"
        }
      ],
      "name": "OnlyCoordinatorCanFulfill",
      "type": "error"
    },
    {
      "inputs": [],
      "name": "ReentrancyGuardReentrantCall",
      "type": "error"
    },
    {
      "anonymous": false,
      "inputs": [
        {
          "indexed": true,
          "internalType": "uint256",
          "name": "requestId",
          "type": "uint256"
        },
        {
          "indexed": true,
          "internalType": "address",
          "name": "player",
          "type": "address"
        },
        {
          "indexed": true,
          "internalType": "address",
          "name": "token",
          "type": "address"
        },
        {
          "indexed": false,
          "internalType": "uint256",
          "name": "wager",
          "type": "uint256"
        }
      ],
      "name": "BetPlaced",
      "type": "event"
    },
    {
      "anonymous": false,
      "inputs": [
        {
          "indexed": false,
          "internalType": "uint32",
          "name": "newLimit",
          "type": "uint32"
        }
      ],
      "name": "CallbackGasLimitChanged",
      "type": "event"
    },
    {
      "anonymous": false,
      "inputs": [
        {
          "indexed": false,
          "internalType": "uint256",
          "name": "newHouseEdgeBp",
          "type": "uint256"
        }
      ],
      "name": "HouseEdgeChanged",
      "type": "event"
    },
    {
      "anonymous": false,
      "inputs": [
        {
          "indexed": false,
          "internalType": "bytes32",
          "name": "newKeyHash",
          "type": "bytes32"
        }
      ],
      "name": "KeyHashChanged",
      "type": "event"
    },
    {
      "anonymous": false,
      "inputs": [
        {
          "indexed": false,
          "internalType": "uint256",
          "name": "newMaxBetDivisor",
          "type": "uint256"
        }
      ],
      "name": "MaxBetDivisorChanged",
      "type": "event"
    },
    {
      "anonymous": false,
      "inputs": [
        {
          "indexed": true,
          "internalType": "address",
          "name": "token",
          "type": "address"
        },
        {
          "indexed": false,
          "internalType": "uint256",
          "name": "newReserve",
          "type": "uint256"
        }
      ],
      "name": "MinReserveChanged",
      "type": "event"
    },
    {
      "anonymous": false,
      "inputs": [
        {
          "indexed": true,
          "internalType": "address",
          "name": "newOwner",
          "type": "address"
        }
      ],
      "name": "OwnershipTransferInitiated",
      "type": "event"
    },
    {
      "anonymous": false,
      "inputs": [
        {
          "indexed": true,
          "internalType": "address",
          "name": "previousOwner",
          "type": "address"
        },
        {
          "indexed": true,
          "internalType": "address",
          "name": "newOwner",
          "type": "address"
        }
      ],
      "name": "OwnershipTransferred",
      "type": "event"
    },
    {
      "anonymous": false,
      "inputs": [
        {
          "indexed": false,
          "internalType": "bool",
          "name": "status",
          "type": "bool"
        }
      ],
      "name": "Paused",
      "type": "event"
    },
    {
      "anonymous": false,
      "inputs": [
        {
          "indexed": true,
          "internalType": "address",
          "name": "player",
          "type": "address"
        },
        {
          "indexed": true,
          "internalType": "address",
          "name": "token",
          "type": "address"
        },
        {
          "indexed": false,
          "internalType": "uint256",
          "name": "wager",
          "type": "uint256"
        },
        {
          "indexed": false,
          "internalType": "bool",
          "name": "doubled",
          "type": "bool"
        },
        {
          "indexed": false,
          "internalType": "uint256",
          "name": "payout",
          "type": "uint256"
        },
        {
          "indexed": false,
          "internalType": "uint256",
          "name": "newBalance",
          "type": "uint256"
        },
        {
          "indexed": false,
          "internalType": "uint256",
          "name": "poolAfter",
          "type": "uint256"
        }
      ],
      "name": "Played",
      "type": "event"
    },
    {
      "anonymous": false,
      "inputs": [
        {
          "indexed": false,
          "internalType": "uint16",
          "name": "newConfirmations",
          "type": "uint16"
        }
      ],
      "name": "RequestConfirmationsChanged",
      "type": "event"
    },
    {
      "anonymous": false,
      "inputs": [
        {
          "indexed": false,
          "internalType": "uint64",
          "name": "newSubscriptionId",
          "type": "uint64"
        }
      ],
      "name": "SubscriptionIdChanged",
      "type": "event"
    },
    {
      "anonymous": false,
      "inputs": [
        {
          "indexed": true,
          "internalType": "address",
          "name": "player",
          "type": "address"
        },
        {
          "indexed": true,
          "internalType": "address",
          "name": "token",
          "type": "address"
        },
        {
          "indexed": false,
          "internalType": "uint256",
          "name": "amount",
          "type": "uint256"
        },
        {
          "indexed": false,
          "internalType": "address",
          "name": "to",
          "type": "address"
        }
      ],
      "name": "Withdraw",
      "type": "event"
    },
    {
      "inputs": [],
      "name": "BP_DIVISOR",
      "outputs": [
        {
          "internalType": "uint256",
          "name": "",
          "type": "uint256"
        }
      ],
      "stateMutability": "view",
      "type": "function"
    },
    {
      "inputs": [],
      "name": "COORDINATOR",
      "outputs": [
        {
          "internalType": "contract VRFCoordinatorV2Interface",
          "name": "",
          "type": "address"
        }
      ],
      "stateMutability": "view",
      "type": "function"
    },
    {
      "inputs": [],
      "name": "acceptOwnership",
      "outputs": [],
      "stateMutability": "nonpayable",
      "type": "function"
    },
    {
      "inputs": [
        {
          "internalType": "address",
          "name": "",
          "type": "address"
        },
        {
          "internalType": "address",
          "name": "",
          "type": "address"
        }
      ],
      "name": "balances",
      "outputs": [
        {
          "internalType": "uint256",
          "name": "",
          "type": "uint256"
        }
      ],
      "stateMutability": "view",
      "type": "function"
    },
    {
      "inputs": [],
      "name": "callbackGasLimit",
      "outputs": [
        {
          "internalType": "uint32",
          "name": "",
          "type": "uint32"
        }
      ],
      "stateMutability": "view",
      "type": "function"
    },
    {
      "inputs": [
        {
          "internalType": "address",
          "name": "token",
          "type": "address"
        }
      ],
      "name": "getPoolBalance",
      "outputs": [
        {
          "internalType": "uint256",
          "name": "",
          "type": "uint256"
        }
      ],
      "stateMutability": "view",
      "type": "function"
    },
    {
      "inputs": [],
      "name": "houseEdgeBp",
      "outputs": [
        {
          "internalType": "uint256",
          "name": "",
          "type": "uint256"
        }
      ],
      "stateMutability": "view",
      "type": "function"
    },
    {
      "inputs": [],
      "name": "keyHash",
      "outputs": [
        {
          "internalType": "bytes32",
          "name": "",
          "type": "bytes32"
        }
      ],
      "stateMutability": "view",
      "type": "function"
    },
    {
      "inputs": [],
      "name": "maxBetDivisor",
      "outputs": [
        {
          "internalType": "uint256",
          "name": "",
          "type": "uint256"
        }
      ],
      "stateMutability": "view",
      "type": "function"
    },
    {
      "inputs": [
        {
          "internalType": "address",
          "name": "",
          "type": "address"
        }
      ],
      "name": "minReserve",
      "outputs": [
        {
          "internalType": "uint256",
          "name": "",
          "type": "uint256"
        }
      ],
      "stateMutability": "view",
      "type": "function"
    },
    {
      "inputs": [],
      "name": "owner",
      "outputs": [
        {
          "internalType": "address",
          "name": "",
          "type": "address"
        }
      ],
      "stateMutability": "view",
      "type": "function"
    },
    {
      "inputs": [
        {
          "internalType": "bool",
          "name": "state",
          "type": "bool"
        }
      ],
      "name": "pause",
      "outputs": [],
      "stateMutability": "nonpayable",
      "type": "function"
    },
    {
      "inputs": [],
      "name": "paused",
      "outputs": [
        {
          "internalType": "bool",
          "name": "",
          "type": "bool"
        }
      ],
      "stateMutability": "view",
      "type": "function"
    },
    {
      "inputs": [],
      "name": "pendingOwner",
      "outputs": [
        {
          "internalType": "address",
          "name": "",
          "type": "address"
        }
      ],
      "stateMutability": "view",
      "type": "function"
    },
    {
      "inputs": [
        {
          "internalType": "address",
          "name": "token",
          "type": "address"
        },
        {
          "internalType": "uint256",
          "name": "amount",
          "type": "uint256"
        }
      ],
      "name": "playWithERC20",
      "outputs": [],
      "stateMutability": "nonpayable",
      "type": "function"
    },
    {
      "inputs": [],
      "name": "playWithETH",
      "outputs": [],
      "stateMutability": "payable",
      "type": "function"
    },
    {
      "inputs": [
        {
          "internalType": "uint256",
          "name": "requestId",
          "type": "uint256"
        },
        {
          "internalType": "uint256[]",
          "name": "randomWords",
          "type": "uint256[]"
        }
      ],
      "name": "rawFulfillRandomWords",
      "outputs": [],
      "stateMutability": "nonpayable",
      "type": "function"
    },
    {
      "inputs": [],
      "name": "requestConfirmations",
      "outputs": [
        {
          "internalType": "uint16",
          "name": "",
          "type": "uint16"
        }
      ],
      "stateMutability": "view",
      "type": "function"
    },
    {
      "inputs": [],
      "name": "s_subscriptionId",
      "outputs": [
        {
          "internalType": "uint64",
          "name": "",
          "type": "uint64"
        }
      ],
      "stateMutability": "view",
      "type": "function"
    },
    {
      "inputs": [
        {
          "internalType": "uint32",
          "name": "limit",
          "type": "uint32"
        }
      ],
      "name": "setCallbackGasLimit",
      "outputs": [],
      "stateMutability": "nonpayable",
      "type": "function"
    },
    {
      "inputs": [
        {
          "internalType": "uint256",
          "name": "bp",
          "type": "uint256"
        }
      ],
      "name": "setHouseEdgeBp",
      "outputs": [],
      "stateMutability": "nonpayable",
      "type": "function"
    },
    {
      "inputs": [
        {
          "internalType": "bytes32",
          "name": "_keyHash",
          "type": "bytes32"
        }
      ],
      "name": "setKeyHash",
      "outputs": [],
      "stateMutability": "nonpayable",
      "type": "function"
    },
    {
      "inputs": [
        {
          "internalType": "uint256",
          "name": "div",
          "type": "uint256"
        }
      ],
      "name": "setMaxBetDivisor",
      "outputs": [],
      "stateMutability": "nonpayable",
      "type": "function"
    },
    {
      "inputs": [
        {
          "internalType": "address",
          "name": "token",
          "type": "address"
        },
        {
          "internalType": "uint256",
          "name": "reserve",
          "type": "uint256"
        }
      ],
      "name": "setMinReserve",
      "outputs": [],
      "stateMutability": "nonpayable",
      "type": "function"
    },
    {
      "inputs": [
        {
          "internalType": "uint16",
          "name": "confirmations",
          "type": "uint16"
        }
      ],
      "name": "setRequestConfirmations",
      "outputs": [],
      "stateMutability": "nonpayable",
      "type": "function"
    },
    {
      "inputs": [
        {
          "internalType": "uint64",
          "name": "subscriptionId",
          "type": "uint64"
        }
      ],
      "name": "setSubscriptionId",
      "outputs": [],
      "stateMutability": "nonpayable",
      "type": "function"
    },
    {
      "inputs": [
        {
          "internalType": "address",
          "name": "",
          "type": "address"
        }
      ],
      "name": "totalPlayerBalances",
      "outputs": [
        {
          "internalType": "uint256",
          "name": "",
          "type": "uint256"
        }
      ],
      "stateMutability": "view",
      "type": "function"
    },
    {
      "inputs": [
        {
          "internalType": "address",
          "name": "newOwner",
          "type": "address"
        }
      ],
      "name": "transferOwnership",
      "outputs": [],
      "stateMutability": "nonpayable",
      "type": "function"
    },
    {
      "inputs": [
        {
          "internalType": "address",
          "name": "token",
          "type": "address"
        },
        {
          "internalType": "uint256",
          "name": "amount",
          "type": "uint256"
        },
        {
          "internalType": "address",
          "name": "to",
          "type": "address"
        }
      ],
      "name": "withdraw",
      "outputs": [],
      "stateMutability": "nonpayable",
      "type": "function"
    },
    {
      "stateMutability": "payable",
      "type": "receive"
    }
  ],
  "bytecode": "0x60a060405260c86001556032600255620186a0600760006101000a81548163ffffffff021916908363ffffffff1602179055506003600760046101000a81548161ffff021916908361ffff1602179055503480156200005d57600080fd5b506040516200428e3803806200428e833981810160405281019062000083919062000372565b848073ffffffffffffffffffffffffffffffffffffffff1660808173ffffffffffffffffffffffffffffffffffffffff168152505050600160008190555033600360006101000a81548173ffffffffffffffffffffffffffffffffffffffff021916908373ffffffffffffffffffffffffffffffffffffffff16021790555084600560006101000a81548173ffffffffffffffffffffffffffffffffffffffff021916908373ffffffffffffffffffffffffffffffffffffffff16021790555083600560146101000a81548167ffffffffffffffff021916908367ffffffffffffffff1602179055508260068190555081600760006101000a81548163ffffffff021916908363ffffffff16021790555080600760046101000a81548161ffff021916908361ffff160217905550674563918244f40000600a60008073ffffffffffffffffffffffffffffffffffffffff1673ffffffffffffffffffffffffffffffffffffffff168152602001908152602001600020819055505050505050620003fa565b600080fd5b600073ffffffffffffffffffffffffffffffffffffffff82169050919050565b60006200023a826200020d565b9050919050565b6200024c816200022d565b81146200025857600080fd5b50565b6000815190506200026c8162000241565b92915050565b600067ffffffffffffffff82169050919050565b620002918162000272565b81146200029d57600080fd5b50565b600081519050620002b18162000286565b92915050565b6000819050919050565b620002cc81620002b7565b8114620002d857600080fd5b50565b600081519050620002ec81620002c1565b92915050565b600063ffffffff82169050919050565b6200030d81620002f2565b81146200031957600080fd5b50565b6000815190506200032d8162000302565b92915050565b600061ffff82169050919050565b6200034c8162000333565b81146200035857600080fd5b50565b6000815190506200036c8162000341565b92915050565b600080600080600060a0868803121562000391576200039062000208565b5b6000620003a1888289016200025b565b9550506020620003b488828901620002a0565b9450506040620003c788828901620002db565b9350506060620003da888289016200031c565b9250506080620003ed888289016200035b565b9150509295509295909350565b608051613e716200041d6000396000818161079801526107ec0152613e716000f3fe6080604052600436106101c65760003560e01c80638824f5a7116100f7578063c474428111610095578063d3a4e21d11610064578063d3a4e21d146105f2578063e30c39781461062f578063ea7b4f771461065a578063f2fde38b14610683576101cd565b8063c474428114610526578063c7ae38941461054f578063d0f8ce4414610578578063d28682ea146105b5576101cd565b806398544710116100d1578063985447101461046c578063a4eb718c14610495578063b0fb162f146104be578063c23f001f146104e9576101cd565b80638824f5a7146103ed5780638ac00021146104165780638da5cb5b14610441576101cd565b80635c975abb1161016457806369328dec1161013e57806369328dec14610359578063752f74661461038257806379ba5097146103ad5780637edfb869146103c4576101cd565b80635c975abb146102f957806361728f39146103245780636180994e1461034f576101cd565b806321154ec5116101a057806321154ec51461024f57806324f746971461027857806339849771146102a35780633b2bcbf1146102ce576101cd565b806302329a29146101d25780631227fdab146101fb5780631fe543e314610226576101cd565b366101cd57005b600080fd5b3480156101de57600080fd5b506101f960048036038101906101f49190612ae1565b6106ac565b005b34801561020757600080fd5b50610210610790565b60405161021d9190612b27565b60405180910390f35b34801561023257600080fd5b5061024d60048036038101906102489190612cc7565b610796565b005b34801561025b57600080fd5b5061027660048036038101906102719190612d23565b610856565b005b34801561028457600080fd5b5061028d61096a565b60405161029a9190612d6f565b60405180910390f35b3480156102af57600080fd5b506102b8610980565b6040516102c59190612b27565b60405180910390f35b3480156102da57600080fd5b506102e3610986565b6040516102f09190612e09565b60405180910390f35b34801561030557600080fd5b5061030e6109ac565b60405161031b9190612e33565b60405180910390f35b34801561033057600080fd5b506103396109bf565b6040516103469190612e67565b60405180910390f35b6103576109c5565b005b34801561036557600080fd5b50610380600480360381019061037b9190612ec0565b610f32565b005b34801561038e57600080fd5b50610397611375565b6040516103a49190612b27565b60405180910390f35b3480156103b957600080fd5b506103c261137b565b005b3480156103d057600080fd5b506103eb60048036038101906103e69190612f13565b611556565b005b3480156103f957600080fd5b50610414600480360381019061040f9190612f8d565b61167c565b005b34801561042257600080fd5b5061042b611763565b6040516104389190612fdd565b60405180910390f35b34801561044d57600080fd5b5061045661177d565b6040516104639190613007565b60405180910390f35b34801561047857600080fd5b50610493600480360381019061048e919061304e565b6117a3565b005b3480156104a157600080fd5b506104bc60048036038101906104b791906130a7565b611874565b005b3480156104ca57600080fd5b506104d361195f565b6040516104e091906130e3565b60405180910390f35b3480156104f557600080fd5b50610510600480360381019061050b91906130fe565b611973565b60405161051d9190612b27565b60405180910390f35b34801561053257600080fd5b5061054d60048036038101906105489190612f13565b611998565b005b34801561055b57600080fd5b5061057660048036038101906105719190612d23565b6120a6565b005b34801561058457600080fd5b5061059f600480360381019061059a919061313e565b6121c7565b6040516105ac9190612b27565b60405180910390f35b3480156105c157600080fd5b506105dc60048036038101906105d7919061313e565b6121df565b6040516105e99190612b27565b60405180910390f35b3480156105fe57600080fd5b506106196004803603810190610614919061313e565b61236a565b6040516106269190612b27565b60405180910390f35b34801561063b57600080fd5b50610644612382565b6040516106519190613007565b60405180910390f35b34801561066657600080fd5b50610681600480360381019061067c9190613197565b6123a8565b005b34801561068f57600080fd5b506106aa60048036038101906106a5919061313e565b61249b565b005b600360009054906101000a900473ffffffffffffffffffffffffffffffffffffffff1673ffffffffffffffffffffffffffffffffffffffff163373ffffffffffffffffffffffffffffffffffffffff161461073c576040517f08c379a000000000000000000000000000000000000000000000000000000000815260040161073390613221565b60405180910390fd5b80600460146101000a81548160ff0219169083151502179055507f0e2fb031ee032dc02d8011dc50b816eb450cf856abd8261680dac74f72165bd2816040516107859190612e33565b60405180910390a150565b60015481565b7f000000000000000000000000000000000000000000000000000000000000000073ffffffffffffffffffffffffffffffffffffffff163373ffffffffffffffffffffffffffffffffffffffff161461084857337f00000000000000000000000000000000000000000000000000000000000000006040517f1cf993f400000000000000000000000000000000000000000000000000000000815260040161083f929190613241565b60405180910390fd5b6108528282612621565b5050565b600360009054906101000a900473ffffffffffffffffffffffffffffffffffffffff1673ffffffffffffffffffffffffffffffffffffffff163373ffffffffffffffffffffffffffffffffffffffff16146108e6576040517f08c379a00000000000000000000000000000000000000000000000000000000081526004016108dd90613221565b60405180910390fd5b60008111610929576040517f08c379a0000000000000000000000000000000000000000000000000000000008152600401610920906132b6565b60405180910390fd5b806002819055507f97e473f28e1ffe60d4924fe1107d6916e8a119b9a90e1d725f96b491aa33560a8160405161095f9190612b27565b60405180910390a150565b600760009054906101000a900463ffffffff1681565b60025481565b600560009054906101000a900473ffffffffffffffffffffffffffffffffffffffff1681565b600460149054906101000a900460ff1681565b60065481565b600460149054906101000a900460ff1615610a15576040517f08c379a0000000000000000000000000000000000000000000000000000000008152600401610a0c90613322565b60405180910390fd5b60003411610a58576040517f08c379a0000000000000000000000000000000000000000000000000000000008152600401610a4f9061338e565b60405180910390fd5b6000803490506000610a6982612a16565b90506000479050600960008573ffffffffffffffffffffffffffffffffffffffff1673ffffffffffffffffffffffffffffffffffffffff1681526020019081526020016000205483610abb91906133dd565b811015610afd576040517f08c379a0000000000000000000000000000000000000000000000000000000008152600401610af49061345d565b60405180910390fd5b6000600960008673ffffffffffffffffffffffffffffffffffffffff1673ffffffffffffffffffffffffffffffffffffffff168152602001908152602001600020548483610b4b919061347d565b610b55919061347d565b9050600060025411610b9c576040517f08c379a0000000000000000000000000000000000000000000000000000000008152600401610b93906134fd565b60405180910390fd5b60025481610baa919061354c565b831115610bec576040517f08c379a0000000000000000000000000000000000000000000000000000000008152600401610be3906135c9565b60405180910390fd5b826002610bf991906135e9565b8482610c0591906133dd565b1015610c46576040517f08c379a0000000000000000000000000000000000000000000000000000000008152600401610c3d90613677565b60405180910390fd5b600a60008673ffffffffffffffffffffffffffffffffffffffff1673ffffffffffffffffffffffffffffffffffffffff16815260200190815260200160002054836002610c9391906135e9565b8583610c9f91906133dd565b610ca9919061347d565b1015610cea576040517f08c379a0000000000000000000000000000000000000000000000000000000008152600401610ce1906136e3565b60405180910390fd5b6000600560009054906101000a900473ffffffffffffffffffffffffffffffffffffffff1673ffffffffffffffffffffffffffffffffffffffff16635d3b1d30600654600560149054906101000a900467ffffffffffffffff16600760049054906101000a900461ffff16600760009054906101000a900463ffffffff1660016040518663ffffffff1660e01b8152600401610d8a95949392919061373e565b6020604051808303816000875af1158015610da9573d6000803e3d6000fd5b505050506040513d601f19601f82011682018060405250810190610dcd91906137a6565b905060405180606001604052803373ffffffffffffffffffffffffffffffffffffffff1681526020018773ffffffffffffffffffffffffffffffffffffffff16815260200185815250600b600083815260200190815260200160002060008201518160000160006101000a81548173ffffffffffffffffffffffffffffffffffffffff021916908373ffffffffffffffffffffffffffffffffffffffff16021790555060208201518160010160006101000a81548173ffffffffffffffffffffffffffffffffffffffff021916908373ffffffffffffffffffffffffffffffffffffffff160217905550604082015181600201559050508573ffffffffffffffffffffffffffffffffffffffff163373ffffffffffffffffffffffffffffffffffffffff16827f4108a54a721949460b35685fb714a531f3002d5f831f59a7c8214f72a054e4d287604051610f229190612b27565b60405180910390a4505050505050565b610f3a612a45565b600073ffffffffffffffffffffffffffffffffffffffff168173ffffffffffffffffffffffffffffffffffffffff1603610fa9576040517f08c379a0000000000000000000000000000000000000000000000000000000008152600401610fa09061381f565b60405180910390fd5b81600860003373ffffffffffffffffffffffffffffffffffffffff1673ffffffffffffffffffffffffffffffffffffffff16815260200190815260200160002060008573ffffffffffffffffffffffffffffffffffffffff1673ffffffffffffffffffffffffffffffffffffffff16815260200190815260200160002054101580156110355750600082115b611074576040517f08c379a000000000000000000000000000000000000000000000000000000000815260040161106b9061388b565b60405180910390fd5b81600860003373ffffffffffffffffffffffffffffffffffffffff1673ffffffffffffffffffffffffffffffffffffffff16815260200190815260200160002060008573ffffffffffffffffffffffffffffffffffffffff1673ffffffffffffffffffffffffffffffffffffffff1681526020019081526020016000206000828254611100919061347d565b9250508190555081600960008573ffffffffffffffffffffffffffffffffffffffff1673ffffffffffffffffffffffffffffffffffffffff1681526020019081526020016000206000828254611156919061347d565b92505081905550600073ffffffffffffffffffffffffffffffffffffffff168373ffffffffffffffffffffffffffffffffffffffff16036112435760008173ffffffffffffffffffffffffffffffffffffffff16836040516111b7906138dc565b60006040518083038185875af1925050503d80600081146111f4576040519150601f19603f3d011682016040523d82523d6000602084013e6111f9565b606091505b505090508061123d576040517f08c379a00000000000000000000000000000000000000000000000000000000081526004016112349061393d565b60405180910390fd5b50611301565b8273ffffffffffffffffffffffffffffffffffffffff1663a9059cbb82846040518363ffffffff1660e01b815260040161127e92919061395d565b6020604051808303816000875af115801561129d573d6000803e3d6000fd5b505050506040513d601f19601f820116820180604052508101906112c1919061399b565b611300576040517f08c379a00000000000000000000000000000000000000000000000000000000081526004016112f790613a14565b60405180910390fd5b5b8273ffffffffffffffffffffffffffffffffffffffff163373ffffffffffffffffffffffffffffffffffffffff167f3ed4ee04a905a278b050a856bbe7ddaaf327a30514373e65aa6103beeae488c38484604051611360929190613a34565b60405180910390a3611370612a8b565b505050565b61271081565b600460009054906101000a900473ffffffffffffffffffffffffffffffffffffffff1673ffffffffffffffffffffffffffffffffffffffff163373ffffffffffffffffffffffffffffffffffffffff161461140b576040517f08c379a000000000000000000000000000000000000000000000000000000000815260040161140290613aa9565b60405180910390fd5b6000600360009054906101000a900473ffffffffffffffffffffffffffffffffffffffff169050600460009054906101000a900473ffffffffffffffffffffffffffffffffffffffff16600360006101000a81548173ffffffffffffffffffffffffffffffffffffffff021916908373ffffffffffffffffffffffffffffffffffffffff1602179055506000600460006101000a81548173ffffffffffffffffffffffffffffffffffffffff021916908373ffffffffffffffffffffffffffffffffffffffff160217905550600360009054906101000a900473ffffffffffffffffffffffffffffffffffffffff1673ffffffffffffffffffffffffffffffffffffffff168173ffffffffffffffffffffffffffffffffffffffff167f8be0079c531659141344cd1fd0a4f28419497f9722a3daafe3b4186f6b6457e060405160405180910390a350565b600360009054906101000a900473ffffffffffffffffffffffffffffffffffffffff1673ffffffffffffffffffffffffffffffffffffffff163373ffffffffffffffffffffffffffffffffffffffff16146115e6576040517f08c379a00000000000000000000000000000000000000000000000000000000081526004016115dd90613221565b60405180910390fd5b80600a60008473ffffffffffffffffffffffffffffffffffffffff1673ffffffffffffffffffffffffffffffffffffffff168152602001908152602001600020819055508173ffffffffffffffffffffffffffffffffffffffff167f73b58f9c8f0c61a047264fa8b1db86690a6ebf2a4926a7b651b128b7c8fc6db7826040516116709190612b27565b60405180910390a25050565b600360009054906101000a900473ffffffffffffffffffffffffffffffffffffffff1673ffffffffffffffffffffffffffffffffffffffff163373ffffffffffffffffffffffffffffffffffffffff161461170c576040517f08c379a000000000000000000000000000000000000000000000000000000000815260040161170390613221565b60405180910390fd5b80600760046101000a81548161ffff021916908361ffff1602179055507f5f2958f67bea9664c4bcf322324676126589053413114c2ac92133e1e62c39258160405161175891906130e3565b60405180910390a150565b600560149054906101000a900467ffffffffffffffff1681565b600360009054906101000a900473ffffffffffffffffffffffffffffffffffffffff1681565b600360009054906101000a900473ffffffffffffffffffffffffffffffffffffffff1673ffffffffffffffffffffffffffffffffffffffff163373ffffffffffffffffffffffffffffffffffffffff1614611833576040517f08c379a000000000000000000000000000000000000000000000000000000000815260040161182a90613221565b60405180910390fd5b806006819055507f9246876a787979c4a7cbd6ca7578963f8d6902db7506450930b6149869d11e31816040516118699190612e67565b60405180910390a150565b600360009054906101000a900473ffffffffffffffffffffffffffffffffffffffff1673ffffffffffffffffffffffffffffffffffffffff163373ffffffffffffffffffffffffffffffffffffffff1614611904576040517f08c379a00000000000000000000000000000000000000000000000000000000081526004016118fb90613221565b60405180910390fd5b80600760006101000a81548163ffffffff021916908363ffffffff1602179055507f7619b2e3cd707ed21c25bef4f87470fbbbbfa730fb0a376da367627ebe4c5554816040516119549190612d6f565b60405180910390a150565b600760049054906101000a900461ffff1681565b6008602052816000526040600020602052806000526040600020600091509150505481565b600460149054906101000a900460ff16156119e8576040517f08c379a00000000000000000000000000000000000000000000000000000000081526004016119df90613322565b60405180910390fd5b600073ffffffffffffffffffffffffffffffffffffffff168273ffffffffffffffffffffffffffffffffffffffff1603611a57576040517f08c379a0000000000000000000000000000000000000000000000000000000008152600401611a4e90613b15565b60405180910390fd5b60008111611a9a576040517f08c379a0000000000000000000000000000000000000000000000000000000008152600401611a9190613b81565b60405180910390fd5b8173ffffffffffffffffffffffffffffffffffffffff166323b872dd3330846040518463ffffffff1660e01b8152600401611ad793929190613ba1565b6020604051808303816000875af1158015611af6573d6000803e3d6000fd5b505050506040513d601f19601f82011682018060405250810190611b1a919061399b565b611b59576040517f08c379a0000000000000000000000000000000000000000000000000000000008152600401611b5090613c24565b60405180910390fd5b6000611b6482612a16565b905060008373ffffffffffffffffffffffffffffffffffffffff166370a08231306040518263ffffffff1660e01b8152600401611ba19190613007565b602060405180830381865afa158015611bbe573d6000803e3d6000fd5b505050506040513d601f19601f82011682018060405250810190611be291906137a6565b9050600960008573ffffffffffffffffffffffffffffffffffffffff1673ffffffffffffffffffffffffffffffffffffffff1681526020019081526020016000205483611c2f91906133dd565b811015611c71576040517f08c379a0000000000000000000000000000000000000000000000000000000008152600401611c689061345d565b60405180910390fd5b6000600960008673ffffffffffffffffffffffffffffffffffffffff1673ffffffffffffffffffffffffffffffffffffffff168152602001908152602001600020548483611cbf919061347d565b611cc9919061347d565b9050600060025411611d10576040517f08c379a0000000000000000000000000000000000000000000000000000000008152600401611d07906134fd565b60405180910390fd5b60025481611d1e919061354c565b831115611d60576040517f08c379a0000000000000000000000000000000000000000000000000000000008152600401611d57906135c9565b60405180910390fd5b826002611d6d91906135e9565b8482611d7991906133dd565b1015611dba576040517f08c379a0000000000000000000000000000000000000000000000000000000008152600401611db190613677565b60405180910390fd5b600a60008673ffffffffffffffffffffffffffffffffffffffff1673ffffffffffffffffffffffffffffffffffffffff16815260200190815260200160002054836002611e0791906135e9565b8583611e1391906133dd565b611e1d919061347d565b1015611e5e576040517f08c379a0000000000000000000000000000000000000000000000000000000008152600401611e55906136e3565b60405180910390fd5b6000600560009054906101000a900473ffffffffffffffffffffffffffffffffffffffff1673ffffffffffffffffffffffffffffffffffffffff16635d3b1d30600654600560149054906101000a900467ffffffffffffffff16600760049054906101000a900461ffff16600760009054906101000a900463ffffffff1660016040518663ffffffff1660e01b8152600401611efe95949392919061373e565b6020604051808303816000875af1158015611f1d573d6000803e3d6000fd5b505050506040513d601f19601f82011682018060405250810190611f4191906137a6565b905060405180606001604052803373ffffffffffffffffffffffffffffffffffffffff1681526020018773ffffffffffffffffffffffffffffffffffffffff16815260200185815250600b600083815260200190815260200160002060008201518160000160006101000a81548173ffffffffffffffffffffffffffffffffffffffff021916908373ffffffffffffffffffffffffffffffffffffffff16021790555060208201518160010160006101000a81548173ffffffffffffffffffffffffffffffffffffffff021916908373ffffffffffffffffffffffffffffffffffffffff160217905550604082015181600201559050508573ffffffffffffffffffffffffffffffffffffffff163373ffffffffffffffffffffffffffffffffffffffff16827f4108a54a721949460b35685fb714a531f3002d5f831f59a7c8214f72a054e4d2876040516120969190612b27565b60405180910390a4505050505050565b600360009054906101000a900473ffffffffffffffffffffffffffffffffffffffff1673ffffffffffffffffffffffffffffffffffffffff163373ffffffffffffffffffffffffffffffffffffffff1614612136576040517f08c379a000000000000000000000000000000000000000000000000000000000815260040161212d90613221565b60405180910390fd5b6002612710612145919061354c565b8110612186576040517f08c379a000000000000000000000000000000000000000000000000000000000815260040161217d90613c90565b60405180910390fd5b806001819055507f0c1dd83e74b93f473dc45ab94cfab5b5ec3a03028ea1dd388b0f9d3ad8517778816040516121bc9190612b27565b60405180910390a150565b60096020528060005260406000206000915090505481565b60008073ffffffffffffffffffffffffffffffffffffffff168273ffffffffffffffffffffffffffffffffffffffff16036122825760004790506000600960008573ffffffffffffffffffffffffffffffffffffffff1673ffffffffffffffffffffffffffffffffffffffff1681526020019081526020016000205490508082101561226c576000612279565b8082612278919061347d565b5b92505050612365565b60008273ffffffffffffffffffffffffffffffffffffffff166370a08231306040518263ffffffff1660e01b81526004016122bd9190613007565b602060405180830381865afa1580156122da573d6000803e3d6000fd5b505050506040513d601f19601f820116820180604052508101906122fe91906137a6565b90506000600960008573ffffffffffffffffffffffffffffffffffffffff1673ffffffffffffffffffffffffffffffffffffffff16815260200190815260200160002054905080821015612353576000612360565b808261235f919061347d565b5b925050505b919050565b600a6020528060005260406000206000915090505481565b600460009054906101000a900473ffffffffffffffffffffffffffffffffffffffff1681565b600360009054906101000a900473ffffffffffffffffffffffffffffffffffffffff1673ffffffffffffffffffffffffffffffffffffffff163373ffffffffffffffffffffffffffffffffffffffff1614612438576040517f08c379a000000000000000000000000000000000000000000000000000000000815260040161242f90613221565b60405180910390fd5b80600560146101000a81548167ffffffffffffffff021916908367ffffffffffffffff1602179055507f63adc38f38e3abe773c3dfcf3298359c1a3db50af63d957266e07ef7b4830b5a816040516124909190612fdd565b60405180910390a150565b600360009054906101000a900473ffffffffffffffffffffffffffffffffffffffff1673ffffffffffffffffffffffffffffffffffffffff163373ffffffffffffffffffffffffffffffffffffffff161461252b576040517f08c379a000000000000000000000000000000000000000000000000000000000815260040161252290613221565b60405180910390fd5b600073ffffffffffffffffffffffffffffffffffffffff168173ffffffffffffffffffffffffffffffffffffffff160361259a576040517f08c379a000000000000000000000000000000000000000000000000000000000815260040161259190613cfc565b60405180910390fd5b80600460006101000a81548173ffffffffffffffffffffffffffffffffffffffff021916908373ffffffffffffffffffffffffffffffffffffffff1602179055508073ffffffffffffffffffffffffffffffffffffffff167f20f5afdf40bf7b43c89031a5d4369a30b159e512d164aa46124bcb706b4a1caf60405160405180910390a250565b6000600b60008481526020019081526020016000206040518060600160405290816000820160009054906101000a900473ffffffffffffffffffffffffffffffffffffffff1673ffffffffffffffffffffffffffffffffffffffff1673ffffffffffffffffffffffffffffffffffffffff1681526020016001820160009054906101000a900473ffffffffffffffffffffffffffffffffffffffff1673ffffffffffffffffffffffffffffffffffffffff1673ffffffffffffffffffffffffffffffffffffffff16815260200160028201548152505090506000816040015111612740576040517f08c379a000000000000000000000000000000000000000000000000000000000815260040161273790613d68565b60405180910390fd5b600b6000848152602001908152602001600020600080820160006101000a81549073ffffffffffffffffffffffffffffffffffffffff02191690556001820160006101000a81549073ffffffffffffffffffffffffffffffffffffffff0219169055600282016000905550506000806002846000815181106127c5576127c4613d88565b5b60200260200101516127d79190613db7565b1490506000816127f757600283604001516127f2919061354c565b612809565b6002836040015161280891906135e9565b5b90508060086000856000015173ffffffffffffffffffffffffffffffffffffffff1673ffffffffffffffffffffffffffffffffffffffff1681526020019081526020016000206000856020015173ffffffffffffffffffffffffffffffffffffffff1673ffffffffffffffffffffffffffffffffffffffff168152602001908152602001600020600082825461289f91906133dd565b925050819055508060096000856020015173ffffffffffffffffffffffffffffffffffffffff1673ffffffffffffffffffffffffffffffffffffffff16815260200190815260200160002060008282546128f991906133dd565b92505081905550600061290f84602001516121df565b9050836020015173ffffffffffffffffffffffffffffffffffffffff16846000015173ffffffffffffffffffffffffffffffffffffffff167f18858603c454af4ccaca10f6987894dbdf1c9d3b467c0eab07bd6774b636e2bc86604001518686600860008b6000015173ffffffffffffffffffffffffffffffffffffffff1673ffffffffffffffffffffffffffffffffffffffff16815260200190815260200160002060008b6020015173ffffffffffffffffffffffffffffffffffffffff1673ffffffffffffffffffffffffffffffffffffffff1681526020019081526020016000205487604051612a06959493929190613de8565b60405180910390a3505050505050565b600061271060015483612a2991906135e9565b612a33919061354c565b82612a3e919061347d565b9050919050565b600260005403612a81576040517f3ee5aeb500000000000000000000000000000000000000000000000000000000815260040160405180910390fd5b6002600081905550565b6001600081905550565b6000604051905090565b600080fd5b600080fd5b60008115159050919050565b612abe81612aa9565b8114612ac957600080fd5b50565b600081359050612adb81612ab5565b92915050565b600060208284031215612af757612af6612a9f565b5b6000612b0584828501612acc565b91505092915050565b6000819050919050565b612b2181612b0e565b82525050565b6000602082019050612b3c6000830184612b18565b92915050565b612b4b81612b0e565b8114612b5657600080fd5b50565b600081359050612b6881612b42565b92915050565b600080fd5b6000601f19601f8301169050919050565b7f4e487b7100000000000000000000000000000000000000000000000000000000600052604160045260246000fd5b612bbc82612b73565b810181811067ffffffffffffffff82111715612bdb57612bda612b84565b5b80604052505050565b6000612bee612a95565b9050612bfa8282612bb3565b919050565b600067ffffffffffffffff821115612c1a57612c19612b84565b5b602082029050602081019050919050565b600080fd5b6000612c43612c3e84612bff565b612be4565b90508083825260208201905060208402830185811115612c6657612c65612c2b565b5b835b81811015612c8f5780612c7b8882612b59565b845260208401935050602081019050612c68565b5050509392505050565b600082601f830112612cae57612cad612b6e565b5b8135612cbe848260208601612c30565b91505092915050565b60008060408385031215612cde57612cdd612a9f565b5b6000612cec85828601612b59565b925050602083013567ffffffffffffffff811115612d0d57612d0c612aa4565b5b612d1985828601612c99565b9150509250929050565b600060208284031215612d3957612d38612a9f565b5b6000612d4784828501612b59565b91505092915050565b600063ffffffff82169050919050565b612d6981612d50565b82525050565b6000602082019050612d846000830184612d60565b92915050565b600073ffffffffffffffffffffffffffffffffffffffff82169050919050565b6000819050919050565b6000612dcf612dca612dc584612d8a565b612daa565b612d8a565b9050919050565b6000612de182612db4565b9050919050565b6000612df382612dd6565b9050919050565b612e0381612de8565b82525050565b6000602082019050612e1e6000830184612dfa565b92915050565b612e2d81612aa9565b82525050565b6000602082019050612e486000830184612e24565b92915050565b6000819050919050565b612e6181612e4e565b82525050565b6000602082019050612e7c6000830184612e58565b92915050565b6000612e8d82612d8a565b9050919050565b612e9d81612e82565b8114612ea857600080fd5b50565b600081359050612eba81612e94565b92915050565b600080600060608486031215612ed957612ed8612a9f565b5b6000612ee786828701612eab565b9350506020612ef886828701612b59565b9250506040612f0986828701612eab565b9150509250925092565b60008060408385031215612f2a57612f29612a9f565b5b6000612f3885828601612eab565b9250506020612f4985828601612b59565b9150509250929050565b600061ffff82169050919050565b612f6a81612f53565b8114612f7557600080fd5b50565b600081359050612f8781612f61565b92915050565b600060208284031215612fa357612fa2612a9f565b5b6000612fb184828501612f78565b91505092915050565b600067ffffffffffffffff82169050919050565b612fd781612fba565b82525050565b6000602082019050612ff26000830184612fce565b92915050565b61300181612e82565b82525050565b600060208201905061301c6000830184612ff8565b92915050565b61302b81612e4e565b811461303657600080fd5b50565b60008135905061304881613022565b92915050565b60006020828403121561306457613063612a9f565b5b600061307284828501613039565b91505092915050565b61308481612d50565b811461308f57600080fd5b50565b6000813590506130a18161307b565b92915050565b6000602082840312156130bd576130bc612a9f565b5b60006130cb84828501613092565b91505092915050565b6130dd81612f53565b82525050565b60006020820190506130f860008301846130d4565b92915050565b6000806040838503121561311557613114612a9f565b5b600061312385828601612eab565b925050602061313485828601612eab565b9150509250929050565b60006020828403121561315457613153612a9f565b5b600061316284828501612eab565b91505092915050565b61317481612fba565b811461317f57600080fd5b50565b6000813590506131918161316b565b92915050565b6000602082840312156131ad576131ac612a9f565b5b60006131bb84828501613182565b91505092915050565b600082825260208201905092915050565b7f4f6e6c79206f776e657200000000000000000000000000000000000000000000600082015250565b600061320b600a836131c4565b9150613216826131d5565b602082019050919050565b6000602082019050818103600083015261323a816131fe565b9050919050565b60006040820190506132566000830185612ff8565b6132636020830184612ff8565b9392505050565b7f64697669736f72206d757374206265203e203000000000000000000000000000600082015250565b60006132a06013836131c4565b91506132ab8261326a565b602082019050919050565b600060208201905081810360008301526132cf81613293565b9050919050565b7f47616d6520706175736564000000000000000000000000000000000000000000600082015250565b600061330c600b836131c4565b9150613317826132d6565b602082019050919050565b6000602082019050818103600083015261333b816132ff565b9050919050565b7f4e6f204554482073656e74000000000000000000000000000000000000000000600082015250565b6000613378600b836131c4565b915061338382613342565b602082019050919050565b600060208201905081810360008301526133a78161336b565b9050919050565b7f4e487b7100000000000000000000000000000000000000000000000000000000600052601160045260246000fd5b60006133e882612b0e565b91506133f383612b0e565b925082820190508082111561340b5761340a6133ae565b5b92915050565b7f496e76616c69642062616c616e63652073746174650000000000000000000000600082015250565b60006134476015836131c4565b915061345282613411565b602082019050919050565b600060208201905081810360008301526134768161343a565b9050919050565b600061348882612b0e565b915061349383612b0e565b92508282039050818111156134ab576134aa6133ae565b5b92915050565b7f496e76616c69642064697669736f720000000000000000000000000000000000600082015250565b60006134e7600f836131c4565b91506134f2826134b1565b602082019050919050565b60006020820190508181036000830152613516816134da565b9050919050565b7f4e487b7100000000000000000000000000000000000000000000000000000000600052601260045260246000fd5b600061355782612b0e565b915061356283612b0e565b9250826135725761357161351d565b5b828204905092915050565b7f42657420746f6f206c6172676520666f7220706f6f6c00000000000000000000600082015250565b60006135b36016836131c4565b91506135be8261357d565b602082019050919050565b600060208201905081810360008301526135e2816135a6565b9050919050565b60006135f482612b0e565b91506135ff83612b0e565b925082820261360d81612b0e565b91508282048414831517613624576136236133ae565b5b5092915050565b7f496e73756666696369656e742066756e647320666f72207061796f7574000000600082015250565b6000613661601d836131c4565b915061366c8261362b565b602082019050919050565b6000602082019050818103600083015261369081613654565b9050919050565b7f526573657276657320746f6f206c6f7700000000000000000000000000000000600082015250565b60006136cd6010836131c4565b91506136d882613697565b602082019050919050565b600060208201905081810360008301526136fc816136c0565b9050919050565b6000819050919050565b600061372861372361371e84613703565b612daa565b612d50565b9050919050565b6137388161370d565b82525050565b600060a0820190506137536000830188612e58565b6137606020830187612fce565b61376d60408301866130d4565b61377a6060830185612d60565b613787608083018461372f565b9695505050505050565b6000815190506137a081612b42565b92915050565b6000602082840312156137bc576137bb612a9f565b5b60006137ca84828501613791565b91505092915050565b7f4261642072656365697665720000000000000000000000000000000000000000600082015250565b6000613809600c836131c4565b9150613814826137d3565b602082019050919050565b60006020820190508181036000830152613838816137fc565b9050919050565b7f496e73756666696369656e742062616c616e6365000000000000000000000000600082015250565b60006138756014836131c4565b91506138808261383f565b602082019050919050565b600060208201905081810360008301526138a481613868565b9050919050565b600081905092915050565b50565b60006138c66000836138ab565b91506138d1826138b6565b600082019050919050565b60006138e7826138b9565b9150819050919050565b7f455448207769746864726177616c206661696c65640000000000000000000000600082015250565b60006139276015836131c4565b9150613932826138f1565b602082019050919050565b600060208201905081810360008301526139568161391a565b9050919050565b60006040820190506139726000830185612ff8565b61397f6020830184612b18565b9392505050565b60008151905061399581612ab5565b92915050565b6000602082840312156139b1576139b0612a9f565b5b60006139bf84828501613986565b91505092915050565b7f4552433230207769746864726177616c206661696c6564000000000000000000600082015250565b60006139fe6017836131c4565b9150613a09826139c8565b602082019050919050565b60006020820190508181036000830152613a2d816139f1565b9050919050565b6000604082019050613a496000830185612b18565b613a566020830184612ff8565b9392505050565b7f4e6f742070656e64696e67206f776e6572000000000000000000000000000000600082015250565b6000613a936011836131c4565b9150613a9e82613a5d565b602082019050919050565b60006020820190508181036000830152613ac281613a86565b9050919050565b7f42616420746f6b656e0000000000000000000000000000000000000000000000600082015250565b6000613aff6009836131c4565b9150613b0a82613ac9565b602082019050919050565b60006020820190508181036000830152613b2e81613af2565b9050919050565b7f416d6f756e74206d757374206265203e20300000000000000000000000000000600082015250565b6000613b6b6012836131c4565b9150613b7682613b35565b602082019050919050565b60006020820190508181036000830152613b9a81613b5e565b9050919050565b6000606082019050613bb66000830186612ff8565b613bc36020830185612ff8565b613bd06040830184612b18565b949350505050565b7f5472616e73666572206661696c65640000000000000000000000000000000000600082015250565b6000613c0e600f836131c4565b9150613c1982613bd8565b602082019050919050565b60006020820190508181036000830152613c3d81613c01565b9050919050565b7f546f6f2068696768000000000000000000000000000000000000000000000000600082015250565b6000613c7a6008836131c4565b9150613c8582613c44565b602082019050919050565b60006020820190508181036000830152613ca981613c6d565b9050919050565b7f496e76616c6964206e6577206f776e6572000000000000000000000000000000600082015250565b6000613ce66011836131c4565b9150613cf182613cb0565b602082019050919050565b60006020820190508181036000830152613d1581613cd9565b9050919050565b7f4e6f2070656e64696e6720626574000000000000000000000000000000000000600082015250565b6000613d52600e836131c4565b9150613d5d82613d1c565b602082019050919050565b60006020820190508181036000830152613d8181613d45565b9050919050565b7f4e487b7100000000000000000000000000000000000000000000000000000000600052603260045260246000fd5b6000613dc282612b0e565b9150613dcd83612b0e565b925082613ddd57613ddc61351d565b5b828206905092915050565b600060a082019050613dfd6000830188612b18565b613e0a6020830187612e24565b613e176040830186612b18565b613e246060830185612b18565b613e316080830184612b18565b969550505050505056fea2646970667358221220422b1d9be468c2d4b18c03657e13451b2374c77b0139bfe5edc580324cade9ae64736f6c63430008140033",
  "linkReferences": {},
  "deployedLinkReferences": {}
}